{
  "_format": "hh-sol-artifact-1",
  "contractName": "Tasks",
  "sourceName": "contracts/Tasks.sol",
  "abi": [
    {
      "inputs": [
        {
          "internalType": "address",
          "name": "_tokeAddress",
          "type": "address"
        }
      ],
      "stateMutability": "nonpayable",
      "type": "constructor"
    },
    {
      "anonymous": false,
      "inputs": [
        {
          "indexed": true,
          "internalType": "address",
          "name": "previousOwner",
          "type": "address"
        },
        {
          "indexed": true,
          "internalType": "address",
          "name": "newOwner",
          "type": "address"
        }
      ],
      "name": "OwnershipTransferred",
      "type": "event"
    },
    {
      "inputs": [
        {
          "internalType": "address",
          "name": "_address",
          "type": "address"
        },
        {
          "internalType": "uint32",
          "name": "_taskId",
          "type": "uint32"
        }
      ],
      "name": "checkEligibility",
      "outputs": [
        {
          "internalType": "bool",
          "name": "",
          "type": "bool"
        }
      ],
      "stateMutability": "view",
      "type": "function"
    },
    {
      "inputs": [
        {
          "internalType": "string",
          "name": "_name",
          "type": "string"
        },
        {
          "internalType": "uint32",
          "name": "_rewardsSize",
          "type": "uint32"
        }
      ],
      "name": "createTask",
      "outputs": [],
      "stateMutability": "nonpayable",
      "type": "function"
    },
    {
      "inputs": [],
      "name": "owner",
      "outputs": [
        {
          "internalType": "address",
          "name": "",
          "type": "address"
        }
      ],
      "stateMutability": "view",
      "type": "function"
    },
    {
      "inputs": [],
      "name": "renounceOwnership",
      "outputs": [],
      "stateMutability": "nonpayable",
      "type": "function"
    },
    {
      "inputs": [
        {
          "internalType": "uint32",
          "name": "_taskId",
          "type": "uint32"
        }
      ],
      "name": "taskDone",
      "outputs": [],
      "stateMutability": "nonpayable",
      "type": "function"
    },
    {
      "inputs": [
        {
          "internalType": "address",
          "name": "newOwner",
          "type": "address"
        }
      ],
      "name": "transferOwnership",
      "outputs": [],
      "stateMutability": "nonpayable",
      "type": "function"
    }
  ],
  "bytecode": "0x60a06040526000600360006101000a81548163ffffffff021916908363ffffffff1602179055503480156200003357600080fd5b50604051620011b3380380620011b383398181016040528101906200005991906200019a565b620000796200006d620000b760201b60201c565b620000bf60201b60201c565b8073ffffffffffffffffffffffffffffffffffffffff1660808173ffffffffffffffffffffffffffffffffffffffff1660601b815250505062000214565b600033905090565b60008060009054906101000a900473ffffffffffffffffffffffffffffffffffffffff169050816000806101000a81548173ffffffffffffffffffffffffffffffffffffffff021916908373ffffffffffffffffffffffffffffffffffffffff1602179055508173ffffffffffffffffffffffffffffffffffffffff168173ffffffffffffffffffffffffffffffffffffffff167f8be0079c531659141344cd1fd0a4f28419497f9722a3daafe3b4186f6b6457e060405160405180910390a35050565b6000815190506200019481620001fa565b92915050565b600060208284031215620001ad57600080fd5b6000620001bd8482850162000183565b91505092915050565b6000620001d382620001da565b9050919050565b600073ffffffffffffffffffffffffffffffffffffffff82169050919050565b6200020581620001c6565b81146200021157600080fd5b50565b60805160601c610f796200023a6000396000818161035f015261039b0152610f796000f3fe608060405234801561001057600080fd5b50600436106100625760003560e01c806317fab11d1461006757806342ed480614610083578063715018a61461009f5780638da5cb5b146100a9578063e8ac4c67146100c7578063f2fde38b146100f7575b600080fd5b610081600480360381019061007c9190610a0d565b610113565b005b61009d60048036038101906100989190610a61565b610267565b005b6100a76104ae565b005b6100b1610536565b6040516100be9190610b43565b60405180910390f35b6100e160048036038101906100dc91906109a8565b61055f565b6040516100ee9190610b95565b60405180910390f35b610111600480360381019061010c9190610956565b610633565b005b61011b61072b565b73ffffffffffffffffffffffffffffffffffffffff16610139610536565b73ffffffffffffffffffffffffffffffffffffffff161461018f576040517f08c379a000000000000000000000000000000000000000000000000000000000815260040161018690610c10565b60405180910390fd5b60405180604001604052808381526020018263ffffffff1681525060016000600360009054906101000a900463ffffffff1663ffffffff1663ffffffff16815260200190815260200160002060008201518160000190805190602001906101f79291906107f7565b5060208201518160010160006101000a81548163ffffffff021916908363ffffffff1602179055509050506003600081819054906101000a900463ffffffff168092919061024490610d69565b91906101000a81548163ffffffff021916908363ffffffff160217905550505050565b610271338261055f565b156102b1576040517f08c379a00000000000000000000000000000000000000000000000000000000081526004016102a890610bd0565b60405180910390fd5b6001600260003373ffffffffffffffffffffffffffffffffffffffff1673ffffffffffffffffffffffffffffffffffffffff16815260200190815260200160002060008363ffffffff1663ffffffff16815260200190815260200160002060006101000a81548160ff0219169083151502179055506000600160008363ffffffff1663ffffffff16815260200190815260200160002060010160009054906101000a900463ffffffff1690507f000000000000000000000000000000000000000000000000000000000000000073ffffffffffffffffffffffffffffffffffffffff166323b872dd7f000000000000000000000000000000000000000000000000000000000000000073ffffffffffffffffffffffffffffffffffffffff16638da5cb5b6040518163ffffffff1660e01b815260040160206040518083038186803b1580156103ff57600080fd5b505afa158015610413573d6000803e3d6000fd5b505050506040513d601f19601f82011682018060405250810190610437919061097f565b33846040518463ffffffff1660e01b815260040161045793929190610b5e565b602060405180830381600087803b15801561047157600080fd5b505af1158015610485573d6000803e3d6000fd5b505050506040513d601f19601f820116820180604052508101906104a991906109e4565b505050565b6104b661072b565b73ffffffffffffffffffffffffffffffffffffffff166104d4610536565b73ffffffffffffffffffffffffffffffffffffffff161461052a576040517f08c379a000000000000000000000000000000000000000000000000000000000815260040161052190610c10565b60405180910390fd5b6105346000610733565b565b60008060009054906101000a900473ffffffffffffffffffffffffffffffffffffffff16905090565b6000600360009054906101000a900463ffffffff1663ffffffff168263ffffffff16106105c1576040517f08c379a00000000000000000000000000000000000000000000000000000000081526004016105b890610bb0565b60405180910390fd5b600260008473ffffffffffffffffffffffffffffffffffffffff1673ffffffffffffffffffffffffffffffffffffffff16815260200190815260200160002060008363ffffffff1663ffffffff16815260200190815260200160002060009054906101000a900460ff16905092915050565b61063b61072b565b73ffffffffffffffffffffffffffffffffffffffff16610659610536565b73ffffffffffffffffffffffffffffffffffffffff16146106af576040517f08c379a00000000000000000000000000000000000000000000000000000000081526004016106a690610c10565b60405180910390fd5b600073ffffffffffffffffffffffffffffffffffffffff168173ffffffffffffffffffffffffffffffffffffffff16141561071f576040517f08c379a000000000000000000000000000000000000000000000000000000000815260040161071690610bf0565b60405180910390fd5b61072881610733565b50565b600033905090565b60008060009054906101000a900473ffffffffffffffffffffffffffffffffffffffff169050816000806101000a81548173ffffffffffffffffffffffffffffffffffffffff021916908373ffffffffffffffffffffffffffffffffffffffff1602179055508173ffffffffffffffffffffffffffffffffffffffff168173ffffffffffffffffffffffffffffffffffffffff167f8be0079c531659141344cd1fd0a4f28419497f9722a3daafe3b4186f6b6457e060405160405180910390a35050565b82805461080390610d06565b90600052602060002090601f016020900481019282610825576000855561086c565b82601f1061083e57805160ff191683800117855561086c565b8280016001018555821561086c579182015b8281111561086b578251825591602001919060010190610850565b5b509050610879919061087d565b5090565b5b8082111561089657600081600090555060010161087e565b5090565b60006108ad6108a884610c55565b610c30565b9050828152602081018484840111156108c557600080fd5b6108d0848285610cf7565b509392505050565b6000813590506108e781610efe565b92915050565b6000815190506108fc81610efe565b92915050565b60008151905061091181610f15565b92915050565b600082601f83011261092857600080fd5b813561093884826020860161089a565b91505092915050565b60008135905061095081610f2c565b92915050565b60006020828403121561096857600080fd5b6000610976848285016108d8565b91505092915050565b60006020828403121561099157600080fd5b600061099f848285016108ed565b91505092915050565b600080604083850312156109bb57600080fd5b60006109c9858286016108d8565b92505060206109da85828601610941565b9150509250929050565b6000602082840312156109f657600080fd5b6000610a0484828501610902565b91505092915050565b60008060408385031215610a2057600080fd5b600083013567ffffffffffffffff811115610a3a57600080fd5b610a4685828601610917565b9250506020610a5785828601610941565b9150509250929050565b600060208284031215610a7357600080fd5b6000610a8184828501610941565b91505092915050565b610a9381610c97565b82525050565b610aa281610ca9565b82525050565b6000610ab5601483610c86565b9150610ac082610e34565b602082019050919050565b6000610ad8601283610c86565b9150610ae382610e5d565b602082019050919050565b6000610afb602683610c86565b9150610b0682610e86565b604082019050919050565b6000610b1e602083610c86565b9150610b2982610ed5565b602082019050919050565b610b3d81610ce5565b82525050565b6000602082019050610b586000830184610a8a565b92915050565b6000606082019050610b736000830186610a8a565b610b806020830185610a8a565b610b8d6040830184610b34565b949350505050565b6000602082019050610baa6000830184610a99565b92915050565b60006020820190508181036000830152610bc981610aa8565b9050919050565b60006020820190508181036000830152610be981610acb565b9050919050565b60006020820190508181036000830152610c0981610aee565b9050919050565b60006020820190508181036000830152610c2981610b11565b9050919050565b6000610c3a610c4b565b9050610c468282610d38565b919050565b6000604051905090565b600067ffffffffffffffff821115610c7057610c6f610df4565b5b610c7982610e23565b9050602081019050919050565b600082825260208201905092915050565b6000610ca282610cb5565b9050919050565b60008115159050919050565b600073ffffffffffffffffffffffffffffffffffffffff82169050919050565b600063ffffffff82169050919050565b6000610cf082610cd5565b9050919050565b82818337600083830152505050565b60006002820490506001821680610d1e57607f821691505b60208210811415610d3257610d31610dc5565b5b50919050565b610d4182610e23565b810181811067ffffffffffffffff82111715610d6057610d5f610df4565b5b80604052505050565b6000610d7482610cd5565b915063ffffffff821415610d8b57610d8a610d96565b5b600182019050919050565b7f4e487b7100000000000000000000000000000000000000000000000000000000600052601160045260246000fd5b7f4e487b7100000000000000000000000000000000000000000000000000000000600052602260045260246000fd5b7f4e487b7100000000000000000000000000000000000000000000000000000000600052604160045260246000fd5b6000601f19601f8301169050919050565b7f5f7461736b4964206f7574206f662072616e6765000000000000000000000000600082015250565b7f5461736b20686173206265656e20646f6e650000000000000000000000000000600082015250565b7f4f776e61626c653a206e6577206f776e657220697320746865207a65726f206160008201527f6464726573730000000000000000000000000000000000000000000000000000602082015250565b7f4f776e61626c653a2063616c6c6572206973206e6f7420746865206f776e6572600082015250565b610f0781610c97565b8114610f1257600080fd5b50565b610f1e81610ca9565b8114610f2957600080fd5b50565b610f3581610cd5565b8114610f4057600080fd5b5056fea2646970667358221220d5dc5b3c3c1fdae121dc25ea324e68361bd12a873a11227b9c44b60974a446e864736f6c63430008040033",
  "linkReferences": {},
  "deployedLinkReferences": {}
}